:020000040800F2
:1000000000000120251A0008A9170008AB170008F6
:10001000AD170008AF170008B11700080000000076
:10002000000000000000000000000000B3170008FE
:10003000B517000800000000B7170008B91700083E
:100040006D1A00086D1A00086D1A00086D1A000874
:100050006D1A00086D1A00086D1A00086D1A000864
:100060006D1A0008C1170008CB1700086D1A0008A8
:100070006D1A00086D1A00086D1A00086D1A000844
:10008000D51700086D1A00086D1A00086D1A0008CF
:10009000E51700086D1A00086D1A00086D1A0008AF
:1000A0006D1A0008F51700086D1A00086D1A00088F
:1000B0006D1A00086D1A00086D1A00086D1A000804
:1000C0006D1A00086D1A00086D1A00086D1A0008F4
:1000D0006D1A00086D1A00086D1A00086D1A0008E4
:1000E0006D1A00086D1A00086D1A00086D1A0008D4
:1000F0006D1A00086D1A00086D1A00086D1A0008C4
:100100006D1A00086D1A00086D1A00086D1A0008B3
:100110006D1A00086D1A00086D1A00086D1A0008A3
:100120006D1A00086D1A00086D1A00086D1A000893
:1001300000000000000000000000000000000000BF
:1001400000000000000000000000000000000000AF
:10015000000000000000000000000000000000009F
:10016000000000000000000000000000000000008F
:10017000000000000000000000000000000000007F
:10018000000000000000000000000000000000006F
:10019000000000000000000000000000000000005F
:1001A000000000000000000000000000000000004F
:1001B000000000000000000000000000000000003F
:1001C000000000000000000000000000000000002F
:1001D000000000000000000000000000000000001F
:0401E0005FF8E0F1F3
:1001E80010B5054C237833B9044B13B10448AFF369
:1001F80000800123237010BDD80A002000000000F1
:10020800D8E6000808B5034B1BB103490348AFF310
:10021800008008BD00000000DC0A0020D8E60008C5
:1002280081F0004102E000BF83F0004330B54FEA9F
:1002380041044FEA430594EA050F08BF90EA020F0C
:100248001FBF54EA000C55EA020C7FEA645C7FEA9F
:10025800655C00F0E2804FEA5454D4EB5555B8BFC2
:100268006D420CDD2C4480EA020281EA030382EA33
:10027800000083EA010180EA020281EA0303362DC5
:1002880088BF30BD11F0004F4FEA01314FF4801C98
:100298004CEA113102D0404261EB410113F0004FAA
:1002A8004FEA03334CEA133302D0524263EB430361
:1002B80094EA050F00F0A780A4F10104D5F1200EFF
:1002C8000DDB02FA0EFC22FA05F2801841F100015A
:1002D80003FA0EF2801843FA05F359410EE0A5F12E
:1002E80020050EF1200E012A03FA0EFC28BF4CF05F
:1002F800020C43FA05F3C01851EBE37101F0004515
:1003080007D54FF0000EDCF1000C7EEB00006EEB21
:100318000101B1F5801F1BD3B1F5001F0CD34908AB
:100328005FEA30004FEA3C0C04F101044FEA445202
:1003380012F5800F80F09A80BCF1004F08BF5FEA89
:10034800500C50F1000041EB045141EA050130BD69
:100358005FEA4C0C404141EB0101013C28BFB1F57B
:10036800801FE9D291F0000F04BF01460020B1FAC6
:1003780081F308BF2033A3F10B03B3F120020CDA99
:100388000C3208DD02F1140CC2F10C0201FA0CF077
:1003980021FA02F10CE002F11402D8BFC2F1200CDC
:1003A80001FA02F120FA0CFCDCBF41EA0C01904092
:1003B800E41AA2BF01EB0451294330BD6FEA0404DB
:1003C8001F3C1CDA0C340EDC04F11404C4F12002C6
:1003D80020FA04F001FA02F340EA030021FA04F3D8
:1003E80045EA030130BDC4F10C04C4F1200220FA2F
:1003F80002F001FA04F340EA0300294630BD21FA6D
:1004080004F0294630BD94F0000F83F4801306BF32
:1004180081F480110134013D4EE77FEA645C18BF26
:100428007FEA655C29D094EA050F08BF90EA020FBD
:1004380005D054EA000C04BF1946104630BD91EAB5
:10044800030F1EBF0021002030BD5FEA545C05D1B8
:100458004000494128BF41F0004130BD14F58004F7
:100468003CBF01F5801130BD01F0004545F0FE416B
:1004780041F470014FF0000030BD7FEA645C1ABFA0
:10048800194610467FEA655C1CBF0B46024650EAD7
:10049800013406BF52EA033591EA030F41F4002103
:1004A80030BD00BF90F0000F04BF0021704730B589
:1004B8004FF4806404F132044FF000054FF000015E
:1004C80050E700BF90F0000F04BF0021704730B51F
:1004D8004FF4806404F1320410F0004548BF4042F4
:1004E8004FF000013EE700BF42004FEAE2014FEA49
:1004F80031014FEA02701FBF12F07F4393F07F4F24
:1005080081F06051704732F07F4208BF704793F026
:100518007F4F04BF41F40021704730B54FF4607439
:1005280001F0004521F000411CE700BF50EA01023C
:1005380008BF704730B54FF000050AE050EA0102E5
:1005480008BF704730B511F0004502D5404261EB55
:1005580041014FF4806404F132045FEA915C3FF496
:10056800D8AE4FF003025FEADC0C18BF03325FEA33
:10057800DC0C18BF033202EBDC02C2F1200300FAE4
:1005880003FC20FA02F001FA03FE40EA0E0021FA09
:1005980002F11444BDE600BF70B54FF0FF0C4CF4F7
:1005A800E06C1CEA11541DBF1CEA135594EA0C0FA9
:1005B80095EA0C0F00F0DEF82C4481EA030621EAE4
:1005C8004C5123EA4C5350EA013518BF52EA03351F
:1005D80041F4801143F4801338D0A0FB02CE4FF0D1
:1005E8000005E1FB02E506F00042E0FB03E54FF001
:1005F8000006E1FB03569CF0000F18BF4EF0010EF9
:10060800A4F1FF04B6F5007F64F5407404D25FEAF4
:100618004E0E6D4146EB060642EAC62141EA5551A7
:100628004FEAC52040EA5E504FEACE2EB4F1FD0CE9
:1006380088BFBCF5E06F1ED8BEF1004F08BF5FEA67
:10064800500E50F1000041EB045170BD06F0004619
:1006580046EA010140EA020081EA0301B4EB5C04C6
:10066800C2BFD4EB0C0541EA045170BD41F48011BE
:100678004FF0000E013C00F3AB8014F1360FDEBFE3
:10068800002001F0004170BDC4F10004203C35DABF
:100698000C341BDC04F11404C4F1200500FA05F342
:1006A80020FA04F001FA05F240EA020001F00042E3
:1006B80021F0004110EBD37021FA04F642EB060159
:1006C8005EEA430E08BF20EAD37070BDC4F10C0483
:1006D800C4F1200500FA04F320FA05F001FA04F247
:1006E80040EA020001F0004110EBD37041F1000133
:1006F8005EEA430E08BF20EAD37070BDC4F120053E
:1007080000FA05F24EEA020E20FA04F301FA05F2A5
:1007180043EA020321FA04F001F0004121FA04F24D
:1007280020EA020000EBD3705EEA430E08BF20EA1D
:10073800D37070BD94F0000F0FD101F00046400057
:1007480041EB010111F4801F08BF013CF7D041EAD9
:10075800060195F0000F18BF704703F000465200DD
:1007680043EB030313F4801F08BF013DF7D043EAAE
:100778000603704794EA0C0F0CEA135518BF95EA64
:100788000C0F0CD050EA410618BF52EA4306D1D1EB
:1007980081EA030101F000414FF0000070BD50EA0A
:1007A800410606BF1046194652EA430619D094EA94
:1007B8000C0F02D150EA013613D195EA0C0F05D17E
:1007C80052EA03361CBF104619460AD181EA0301D2
:1007D80001F0004141F0FE4141F470014FF000008A
:1007E80070BD41F0FE4141F4780170BD70B54FF025
:1007F800FF0C4CF4E06C1CEA11541DBF1CEA1355A5
:1008080094EA0C0F95EA0C0F00F0A7F8A4EB050486
:1008180081EA030E52EA03354FEA013100F088807D
:100828004FEA03334FF0805545EA131343EA126346
:100838004FEA022245EA111545EA10654FEA0026FB
:100848000EF000419D4208BF964244F1FD0404F5B4
:10085800407402D25B084FEA3202B61A65EB030510
:100868005B084FEA32024FF480104FF4002CB6EBCD
:10087800020E75EB030E22BFB61A754640EA0C004D
:100888005B084FEA3202B6EB020E75EB030E22BF8D
:10089800B61A754640EA5C005B084FEA3202B6EBCE
:1008A800020E75EB030E22BFB61A754640EA9C008D
:1008B8005B084FEA3202B6EB020E75EB030E22BF5D
:1008C800B61A754640EADC0055EA060E18D04FEA1B
:1008D800051545EA16754FEA06164FEAC30343EABB
:1008E80052734FEAC2025FEA1C1CC0D111F4801F88
:1008F8000BD141EA00014FF000004FF0004CB6E781
:1009080011F4801F04BF01430020B4F1FD0C88BF1F
:10091800BCF5E06F3FF6AFAEB5EB030C04BFB6EB2A
:10092800020C5FEA500C50F1000041EB045170BD1D
:100938000EF0004E4EEA113114EB5C04C2BFD4EB4A
:100948000C0541EA045170BD41F480114FF0000ECE
:10095800013C90E645EA060E8DE60CEA135594EA4A
:100968000C0F08BF95EA0C0F3FF43BAF94EA0C0F4D
:100978000AD150EA01347FF434AF95EA0C0F7FF4C2
:1009880025AF104619462CE795EA0C0F06D152EA16
:1009980003353FF4FDAE1046194622E750EA4106FA
:1009A80018BF52EA43067FF4C5AE50EA41047FF40B
:1009B8000DAF52EA43057FF4EBAE12E74FEA41026E
:1009C80012F5001215D211D56FF47873B3EB625299
:1009D80012D94FEAC12343F0004343EA505311F0C0
:1009E800004F23FA02F018BF404270474FF0000052
:1009F800704750EA013005D111F0004008BF6FF090
:100A0800004070474FF00000704700BF80F0004082
:100A180002E000BF81F0004142001FBF5FEA4103CE
:100A280092EA030F7FEA226C7FEA236C6AD04FEACE
:100A38001262D2EB1363C1BFD21841404840414013
:100A4800B8BF5B42192B88BF704710F0004F40F4C5
:100A5800000020F07F4018BF404211F0004F41F4E1
:100A6800000121F07F4118BF494292EA030F3FD0AD
:100A7800A2F1010241FA03FC10EB0C00C3F12003C0
:100A880001FA03F100F0004302D5494260EB40004F
:100A9800B0F5000F13D3B0F1807F06D340084FEABA
:100AA800310102F10102FE2A51D2B1F1004F40EBAF
:100AB800C25008BF20F0010040EA03007047490017
:100AC80040EB0000013A28BFB0F5000FEDD2B0FAB4
:100AD80080FCACF1080CB2EB0C0200FA0CF0AABFD7
:100AE80000EBC25052421843BCBFD0401843704775
:100AF80092F0000F81F4000106BF80F4000001327B
:100B0800013BB5E74FEA41037FEA226C18BF7FEA51
:100B1800236C21D092EA030F04D092F0000F08BF93
:100B28000846704790EA010F1CBF0020704712F07A
:100B38007F4F04D1400028BF40F00040704712F1B9
:100B480000723CBF00F50000704700F0004343F01E
:100B5800FE4040F4000070477FEA226216BF084654
:100B68007FEA23630146420206BF5FEA412390EA17
:100B7800010F40F4800070474FF0000304E000BF0D
:100B880010F0004348BF40425FEA000C08BF7047BE
:100B980043F0964301464FF000001CE050EA010282
:100BA80008BF70474FF000030AE000BF50EA010297
:100BB80008BF704711F0004302D5404261EB410184
:100BC8005FEA010C02BF84460146002043F0B643A9
:100BD80008BFA3F18053A3F50003BCFA8CF2083ACE
:100BE800A3EBC25310DB01FA02FC634400FA02FCD7
:100BF800C2F12002BCF1004F20FA02F243EB0200DE
:100C080008BF20F00100704702F1200201FA02FC3F
:100C1800C2F1200250EA4C0021FA02F243EB020032
:100C280008BF20EADC70704742000ED2B2F1FE4FD6
:100C38000BD34FF09E03B3EB126209D44FEA0023A3
:100C480043F0004323FA02F070474FF0000070476A
:100C580012F1610F01D1420202D14FF0FF3070470B
:100C68004FF00000704700BF2DE9F047089E0D4681
:100C780004468846002B4DD18A42944668D9B2FA78
:100C880082F252B101FA02F3C2F1200120FA01F115
:100C98000CFA02FC41EA030894404FEA1C41B8FBF5
:100CA800F1F71FFA8CFE01FB178807FB0EF0230CE7
:100CB80043EA084398420AD91CEB030307F1FF35BE
:100CC80080F01E81984240F21B81023F63441B1A48
:100CD800B3FBF1F001FB103300FB0EFEA4B244EAB3
:100CE8000344A6450AD91CEB040400F1FF3380F045
:100CF8000981A64540F20681644402380021A4EB2C
:100D08000E0440EA07401EB10023D440C6E9004360
:100D1800BDE8F0878B4208D9002E00F0EE80002154
:100D2800C6E900050846BDE8F087B3FA83F1002953
:100D38004AD1AB4202D3824200F2FC80841A65EBAE
:100D4800030301209846002EE2D0C6E90048DFE7F9
:100D580002B9FFDEB2FA82F2002A40F09180A1EBDC
:100D68000C0001214FEA1C471FFA8CFEB0FBF7F379
:100D780007FB1300250C45EA00450EFB03F0A842CB
:100D880008D91CEB050503F1FF3802D2A84200F28E
:100D9800CE8043462D1AB5FBF7F007FB10550EFB26
:100DA80000FEA4B244EA0544A64508D91CEB040495
:100DB80000F1FF3502D2A64500F2B6802846A4EB22
:100DC8000E0440EA03409EE7C1F120078B4022FA57
:100DD80007FC4CEA030C25FA07FA4FEA1C49BAFB50
:100DE800F9F820FA07F309FB18AA8D401FFA8CFEC0
:100DF8001D4300FA01F308FB0EF02C0C44EA0A44E8
:100E0800A04202FA01F20BD91CEB040408F1FF3AE4
:100E180080F08880A04240F28580A8F102086444EE
:100E2800241AB4FBF9F009FB104400FB0EFEADB226
:100E380045EA0444A64508D91CEB040400F1FF3533
:100E48006CD2A6456AD90238644440EA0840A0FB3F
:100E58000295A4EB0E04AC42C846AE4656D353D016
:100E6800002E69D0B3EB080264EB0E0422FA01F3FA
:100E780004FA07F71F43CC40C6E90074002147E78E
:100E88000CFA02FCC2F1200125FA01F34FEA1C47D3
:100E980020FA01F195400D43B3FBF7F107FB11333D
:100EA8001FFA8CFE280C40EA034001FB0EF3834234
:100EB80004FA02F408D91CEB000001F1FF382FD224
:100EC80083422DD902396044C01AB0FBF7F307FBFF
:100ED8001300ADB245EA004503FB0EF0A84208D95D
:100EE8001CEB050503F1FF3816D2A84214D9023BC2
:100EF8006544281A43EA014138E73146304607E796
:100F08002F46E4E61846F9E64B45A9D2B9EB0208A4
:100F180065EB0C0E0138A3E74346EAE7284694E759
:100F28004146D1E7D0467BE76444023847E7023BB5
:100F380065442FE7084606E73146E9E6704700BFF3
:100F4800844641EA000313F0030349D1403A23D30E
:100F58000B6803604B6843608B688360CB68C36031
:100F68000B6903614B6943618B698361CB69C36119
:100F78000B6A03624B6A43628B6A8362CB6AC36201
:100F88000B6B03634B6B43638B6B8363CB6BC363E9
:100F980040304031403ADBD230320BD30B6803602B
:100FA8004B6843608B688360CB68C3601030103136
:100FB800103AF3D20C3205D351F8043B40F8043B05
:100FC800043AF9D2043208D0D2071CBF11F8013B09
:100FD80000F8013B01D30B8803806046704700BFCF
:100FE800082A13D38B07B1D010F00303AED0C3F196
:100FF8000403D21ADB071CBF11F8013B00F8013BC0
:10100800A4D331F8023B20F8023B9FE7043AD9D336
:10101800013A11F8013B00F8013BF9D20B78037053
:101028004B7843708B788370604670474FF0FF3C75
:1010380006E000BF4FF0010C02E000BF4FF0010CCA
:101048004DF804CD4FEA410C7FEA6C5C4FEA430C43
:1010580018BF7FEA6C5C1BD001B050EA410C0CBF92
:1010680052EA430C91EA030F02BF90EA020F0020F4
:10107800704710F1000F91EA030F58BF994208BF5B
:1010880090422CBFD8176FEAE37040F00100704718
:101098004FEA410C7FEA6C5C02D150EA013C07D16F
:1010A8004FEA430C7FEA6C5CD6D152EA033CD3D0BA
:1010B8005DF8040B704700BF8446104662468C46B4
:1010C8001946634600E000BF01B5FFF7B7FF0028E7
:1010D80048BF10F1000F01BD4DF808EDFFF7F4FF10
:1010E8000CBF012000205DF808FB00BF4DF808ED9B
:1010F800FFF7EAFF34BF012000205DF808FB00BFBE
:101108004DF808EDFFF7E0FF94BF012000205DF8DF
:1011180008FB00BF4DF808EDFFF7CEFF94BF012094
:1011280000205DF808FB00BF4DF808EDFFF7C4FF8D
:1011380034BF012000205DF808FB00BF4FEA410CD6
:101148007FEA6C5C02D150EA013C0AD14FEA430CB9
:101158007FEA6C5C02D152EA033C02D14FF00000F6
:1011680070474FF00100704753B94AB9002908BFCA
:1011780000281CBF4FF0FF314FF0FF30FFF7DEBEF5
:10118800ADF1080C6DE904CEFFF76EFDDDF804E063
:10119800DDE9022304B0704700B585B00023019350
:1011A800029303931148124A02608360012202737A
:1011B80003754FF46021C1614360026100F0FEFED7
:1011C80068B902230193012302930023039301A921
:1011D800064800F06DFD28B905B05DF804FB00F085
:1011E80045FAEEE700F042FAF6E700BFF40A0020FD
:1011F8000024014000B587B00023029303930493B1
:1012080005930268114B9A4202D007B05DF804FBBF
:1012180003F56C439A6942F400729A619A6902F480
:1012280000720092009A9A6942F004029A619B69DE
:1012380003F004030193019B042302930323039304
:1012480002A9034801F08EF9DFE700BF002401403E
:101258000008014000B583B00A4B5A6942F0010208
:101268005A615B6903F001030193019B0022114657
:10127800102000F049FF102000F07EFF03B05DF859
:1012880004FB00BF0010024070B588B0002404942D
:101298000594069407941B4B9A6942F040029A61A0
:1012A8009A6902F040020192019A9A6942F0040296
:1012B8009A619A6902F004020292029A9A6942F0CB
:1012C80008029A619B6903F008030393039B0E4E7F
:1012D80022460121304601F06CFA182304930B4B87
:1012E80005930125069504A9094801F03BF90495E1
:1012F800059506940223079304A9304601F032F9B4
:1013080008B070BD00100240000C01400000211020
:101318000018014008B50B480B4B03600B4B4360AA
:1013280000238360C3604FF480420261436183619C
:10133800C361036201F0ACFB00B908BD00F096F987
:10134800FBE700BF680B002000540040801A06002D
:1013580030B587B000230293039304930593026882
:101368001D4B9A4201D007B030BD04461B4DAB69F6
:1013780043F00803AB61AB6903F008030093009BDB
:10138800C0230293122303930323059302A914484D
:1013980001F0E8F8EB6943F40013EB61EB6903F43F
:1013A80000130193019B0F480F4B03601023436008
:1013B800002383608022C26003614361202282612E
:1013C800C36100F00DFF18B9064B63635C62CAE79E
:1013D80000F04CF9F8E700BF00540040001002404C
:1013E800000C0140240B00206C00024008B50022CC
:1013F8000221092000F088FE092000F0BDFE00222D
:1014080002210A2000F080FE0A2000F0B5FE08BD87
:1014180000B583B001904FF0FF33012201A90348C2
:1014280003F01DFC019803B05DF804FB880E002052
:1014380010B5044603F020F9204603F0E7F810BD84
:1014480038B50446082802D0102839D038BD1E20E7
:1014580000F054FB2146244801F0A4F90028F5D1F6
:10146800224CE268224B1A602269224B1A602248F9
:1014780007F044F9617F214807F0DEF8637F013304
:10148800DBB26377A27F934201D300226277174DC4
:101498006C7FC4EBC40040000230FFF771FBE860CA
:1014A800C4EB0410400018302844073007F02EF928
:1014B80000EB400080000530FFF75EFB2861C5E7C0
:1014C8000D4807F01BF91E2000F018FB21460648BE
:1014D80001F068F90028B9D1044A137FB3FA83F3FD
:1014E8005B091377B2E700BF00180140BC0B00206E
:1014F800340E0020380E0020F0E6000804E700084B
:1015080030B585B00A21304800F00CFB08B105B0B1
:1015180030BD2D4800F0C8FBFEF7C4FF26A3D3E971
:101528000023FFF763F926A3D3E90023FFF734F874
:10153800FFF744FA0446254B83FB0023C517C5EB88
:1015480063150A2202A9284607F00CF80A2203A903
:10155800642000FB154007F005F81D4C204605F0F7
:10156800CDFE1C49204606F0E7F91B4B01935C238E
:101578000093402300221146204605F0FDFD02ABF2
:1015880037220A21204606F097F9144B37221221F8
:10159800204606F091F903AB37221921204606F0C0
:1015A8008BF90F4B37223221204606F085F9204669
:1015B80005F0B1FEABE700BF0000000000FEAF4041
:1015C8000000000000A07440F40A00201F85EB51C1
:1015D80084180020C8FB00084CE7000808E700084A
:1015E8000CE7000810B582B0194C204605F086FEBD
:1015F800232300933C2303221146204605F00BFECB
:101608001449204606F098F9134B14220421204669
:1016180006F052F9114B1E221421204606F04CF90F
:101628000F4B32220021204606F046F90D4B462288
:101638000121204606F040F90B4B5A220221204690
:1016480006F03AF9204605F066FE02B010BD00BF6C
:1016580084180020ACEA000810E7000818E7000822
:1016680020E7000828E700082CE7000872B6FEE724
:1016780000B597B0282200210CA806F08BFF0023A4
:101688000793089309930A930B9301930293039387
:1016980004930593069301220C924FF480330D9323
:1016A80010920222139214934FF4E01315930CA88E
:1016B80002F04CFBE0B90F230793022108910023A5
:1016C80009934FF480620A920B9307A802F07EFDFB
:1016D80080B9122301934FF4004303934FF480031E
:1016E800069301A802F04EFE30B917B05DF804FB6E
:1016F800FFF7BCFFFFF7BAFFFFF7B8FF08B500F028
:10170800D9F9FFF7B5FFFFF7BFFDFFF7A3FD00F01D
:101718002FF900F0D3F805F02BF9FFF73DFDFFF79F
:1017280065FE0A4800F0AAFB094802F0B9FF094C17
:101738000949204605F02CFB0A2000F0DFF9204675
:1017480005F062FB034805F0FDFBFBE7F40A002007
:10175800400E0020BC0B002030E7000882B00E4B82
:101768009A6942F001029A619A6902F001020092B4
:10177800009ADA6942F08052DA61DB6903F080533B
:101788000193019B054A536823F0E06343F000731B
:10179800536002B0704700BF0010024000000140D3
:1017A800FEE7FEE7FEE7FEE7FEE770477047704793
:1017B80008B500F091F908BD08B5082001F000F857
:1017C80008BD08B5102000F0FBFF08BD08B50248A9
:1017D80000F052FD08BD00BF240B002008B50248E8
:1017E80002F063F808BD00BF9813002008B502484E
:1017F80002F096FF08BD00BF400E00200120704790
:1018080008B506F085FE162303604FF0FF3008BDCB
:1018180008B54FF0FF31FFF7F3FFFEE770B50C4650
:101828001646002506E0AFF30080214601F8010BBB
:1018380001350C46B542F6DB304670BD70B50C4636
:101848001646002504E014F8010BFFF7E1FD013509
:10185800B542F8DB304670BD4FF0FF3070474FF4AB
:1018680000534B60002070470120704700207047EC
:1018780010B503460C4A0D490D48006840B10C48A4
:1018880000680344521A934206D8094A136010BDEF
:101898000748084C0460F2E706F03AFE0C230360A0
:1018A8004FF0FF30F3E700BF000001200004000004
:1018B8003C0E0020381E00207047000000B587B09D
:1018C800002302930393049305930093019316480E
:1018D800164A026047224260836040F2E732C260E3
:1018E800036143618023836103F024F890B94FF4C6
:1018F8008053029302A90C4803F054F868B90023F6
:10190800009301936946084803F0BAF840B907B054
:101918005DF804FBFFF7AAFEE9E7FFF7A7FEEEE78D
:10192800FFF7A4FEF3E700BF400E0020002C0140A3
:1019380002680E4B9A4200D0704700B583B003F599
:1019480064439A6942F400629A619B6903F40063F4
:101958000193019B00221146192000F0D5FB1920A4
:1019680000F00AFC03B05DF804FB00BF002C014046
:1019780008B50A480A4B03604FF4E133436000237B
:101988008360C36003610C2242618361C36103F019
:1019980037F900B908BDFFF769FEFBE7880E00209C
:1019A8000038014010B586B00023029303930493D6
:1019B80005930268174B9A4201D006B010BD03F593
:1019C80058439A6942F480429A619A6902F48042C3
:1019D8000092009A9A6942F004029A619B6903F0A6
:1019E80004030193019B4FF40073029302230393B2
:1019F80003230593084C02A9204600F0B3FD4FF4D9
:101A08008063029300230393049302A9204600F005
:101A1800A9FDD2E700380140000801400C480D49F3
:101A28000D4A002302E0D458C4500433C4188C4231
:101A3800F9D30A4A0A4C002301E013600432A24297
:101A4800FBD3FFF739FF06F069FDFFF757FE704734
:101A580000000020D80A0020E0060108D80A00206B
:101A6800341E0020FEE7000010B504460E4B18781F
:101A78004FF47A73B3FBF0F30C4A1068B0FBF3F041
:101A880000F09AFB68B90F2C01D901200AE0002266
:101A980021464FF0FF3000F037FB054B1C6000205B
:101AA80000E0012010BD00BF04000020000000205D
:101AB8000800002008B5074A136843F010031360B4
:101AC800032000F00FFB0020FFF7CEFFFFF746FED4
:101AD800002008BD00200240034A1168034B1B7810
:101AE8000B441360704700BFCC0E00200400002098
:101AF800014B1868704700BFCC0E002038B504466B
:101B0800FFF7F6FF0546B4F1FF3F02D0044B1B7800
:101B18001C44FFF7EDFF401BA042FAD338BD00BFBD
:101B280004000020F0B583B005460C46002301935D
:101B3800FFF7DEFF2B689A6812F4807F23D10746EF
:101B48005A6812F4807F03D1DB6A13F4700F29D02E
:101B5800504B1E68022002F0A1FCB6FBF0F62B6881
:101B680019694D4A114236D1D96802F15C421142D5
:101B780031D11969494A114240D1DA68484B1A42B1
:101B88003ED0292041E0AB6A43F02003AB6200233A
:101B980085F82430012003B0F0BD2B681B6813F0D2
:101BA800020F0FD02B681B6813F0020F4FD1B4F14E
:101BB800FF3FF7D0002CF0D0FFF79AFFC31BA342DA
:101BC800F0D9EAE7AB6A43F00403AB62002385F877
:101BD80024300320DFE71969304A114204D1D9685B
:101BE80002F16E4211420DD019692E4A0A405AB9C3
:101BF800DA682C4B13405BB1FC2006E0292004E096
:101C0800142002E0542000E0FC2000FB06F607E068
:101C18005420FAE7019BB34210D3019B013301938F
:101C2800019BB34213D2B4F1FF3FF6D0002CF1D0A0
:101C3800FFF75EFFC01BA042EFD9EBE7AB6A43F0AA
:101C48000403AB62002385F824300320A3E72B6844
:101C58006FF012021A60AB6A43F40073AB622B6830
:101C68009B6803F46023B3F5602F01D0002092E74E
:101C7800287B60B9AB6A23F48073AB62AB6A13F458
:101C8800805F88D1AB6A43F00103AB6283E7002031
:101C980081E700BF000000202449922492244912C1
:101CA80092244900499224000368D86C70470000C8
:101CB80030B482B00022019290F82420012A00F06A
:101CC80091800346012280F824204A68062A2DD8EC
:101CD8000468606B02EB8202053A4FF01F0C0CFAA5
:101CE80002FC20EA0C000D6805FA02F20243626366
:101CF8000A68092A3AD91C68E06802EB42021E3ACF
:101D08004FF0070C0CFA02FC20EA0C008D6805FA6B
:101D180002F20243E2600A68103A012A36D900202A
:101D2800002283F8242002B030BC70470C2A0ED859
:101D38000568286B02EB8202233A1F24944020EAAC
:101D480004000C6804FA02F202432A63D0E705682B
:101D5800E86A02EB8202413A1F24944020EA040018
:101D68000C6804FA02F20243EA62C1E71C682069BF
:101D780002EB42024FF0070C0CFA02FC20EA0C00BE
:101D88008D6805FA02F202432261C4E71A68164810
:101D9800824205D09A6A42F020029A620120BFE787
:101DA800906810F4000F1BD1906840F40000906018
:101DB8000A68102A01D00020B2E70C4A12680C49C0
:101DC800A1FB0212920C02EB82025200019202E085
:101DD800019A013A0192019A002AF9D100209FE75D
:101DE80000209DE702209EE700240140000000201B
:101DF80083DE1B4330B583B00023019303689A68E0
:101E080012F0010F33D104469A6842F001029A6039
:101E1800184B1B68184AA2FB03239B0C019302E092
:101E2800019B013B0193019B002BF9D1FFF760FE59
:101E3800054623689B6813F0010F16D1FFF758FE7B
:101E4800431B022BF5D923689B6813F0010FF0D1CF
:101E5800A36A43F01003A362E36A43F00103E36259
:101E6800002384F82430012002E0002000E0002054
:101E780003B030BD0000002083DE1B4390F82430FF
:101E8800012B68D010B50446012380F82430FFF7F1
:101E9800B1FF00285BD1A36A23F4407323F0010348
:101EA80043F48073A36223682C4A934227D0A26A22
:101EB80022F48012A2625A6812F4806F05D0A26AD6
:101EC80022F4405242F48052A262A26A12F4805F65
:101ED8002BD0E26A22F00602E262002284F8242073
:101EE8006FF002021A6023689A6802F46022B2F561
:101EF800602F1DD09A6842F480129A602AE0A2F5F9
:101F08008062526812F4702FD1D0A26A42F4801213
:101F1800A262134A526812F4806FD6D0A26A22F4E1
:101F2800405242F48052A262CFE70022E262D4E734
:101F38000A4A934204D09A6842F4A0029A6009E0DF
:101F4800A2F58062526812F4702FD3D1F3E7002310
:101F580084F8243010BD0220704700BF00280140DB
:101F68000024014038B503689A6812F0010F01D1C6
:101F7800002038BD04469A6822F001029A60FFF7F3
:101F8800B7FD054623689B6813F0010F13D0FFF7D0
:101F9800AFFD431B022BF5D923689B6813F0010F93
:101FA800F0D0A36A43F01003A362E36A43F001038D
:101FB800E3620120DDE70020DBE70000002800F0F5
:101FC800888070B50446836A002B52D02046FFF7FC
:101FD800C9FFA36A13F0100375D1002873D1A26A50
:101FE80022F4885222F0020242F00202A2626268DF
:101FF800266839498E4242D0E1690A43217B42EA88
:102008004102A568B5F5807F02D0012D3ED01D465E
:1020180094F814C0BCF1010F3BD0716821F46941F8
:10202800294371602568AE682C4931401143A96085
:10203800A168B1F5807F01D0012902D12369013B54
:102048001B052568E96A21F470010B43EB622368DC
:102058009968234B0B409A422CD0A36A23F01203B1
:1020680043F01003A362E36A43F00103E362012033
:102078002EE0C36280F82430FFF7BCF8A6E7E169D8
:10208800B1F5402FB9D14FF40021B6E74FF4807570
:10209800BEE731B9A169013945EA413141F400652A
:1020A800BBE7A16A41F02001A162E16A41F00101A8
:1020B800E162B2E70023E362A36A23F0030343F07B
:1020C8000103A36204E0A36A43F01003A3620120A2
:1020D80070BD0120704700BF003C0140FDF7E1FFE3
:1020E800FE0E1FFF074AD36823F4E0631B041B0C92
:1020F800000200F4E060034343F0BF6343F400339D
:10210800D360704700ED00E000B5194BDB68C3F3FE
:102118000223C3F1070CBCF1040F28BF4FF0040CD5
:1021280003F1040EBEF1060F18D9033B4FF0FF3E32
:102138000EFA0CFC21EA0C0199400EFA03F322EA8C
:102148000303194300280BDB0901C9B200F1604001
:1021580000F5614080F800135DF804FB0023E5E713
:1021680000F00F000901C9B2024B1954F4E700BF8F
:1021780000ED00E014ED00E0002807DB00F01F028E
:10218800400901239340024A42F82030704700BFBB
:1021980000E100E000280CDB00F01F0240090123E9
:1021A80093402030034A42F82030BFF34F8FBFF3EB
:1021B8006F8F704700E100E00138B0F1807F0BD2EB
:1021C8004FF0E0235861054AF02182F823100020DF
:1021D800986107221A6170470120704700ED00E0FE
:1021E80000283AD010B4024600681D4B984229D8FE
:1021F8001C4B03441C49A1FB03131B099B001364DC
:102208001A4BD363022382F82130016821F47F51ED
:1022180021F03001536894682343D4682343146938
:1022280023435469234394692343D46923430B43C9
:10223800036000209063012382F8213082F8200097
:1022480010BC70470A4B03440749A1FB03131B0941
:102258009B001364074BD363D4E70120704700BF8A
:1022680007040240F8FFFDBFCDCCCCCC00000240F3
:10227800F8FBFDBF0004024038B5C36B1A68046858
:102288002568016C04238B40134200F09B8015F0F5
:10229800040F00F09780236813F0200F03D1236800
:1022A80023F00403236003689A4A934246D9783A94
:1022B800934224D01432934228D01432934227D028
:1022C8001432934227D01432934227D014329342C7
:1022D80027D01432934227D002F56272934226D057
:1022E8001432934225D01432934224D014329342AC
:1022F80002D04FF4802203E04FF4804200E0042231
:10230800854B5A60C36A03B1984738BD4022F7E746
:102318004FF48062F4E74FF48042F1E74FF48022F3
:10232800EEE74FF48002EBE74FF08062E8E7042223
:10233800E6E74022E4E74FF48062E1E7774A934218
:1023480024D01432934225D01432934224D014322C
:10235800934224D01432934224D01432934224D08E
:102368001432934224D002F56272934223D014327D
:10237800934222D01432934221D01432934202D095
:102388004FF4802203E04FF4804200E00422644BC3
:102398005A60B7E74022FAE74FF48062F7E74FF454
:1023A8008042F4E74FF48022F1E74FF48002EEE731
:1023B8004FF08062EBE70422E9E74022E7E74FF4B9
:1023C8008062E4E702238B40134200F0AB8015F0F3
:1023D800020F00F0A780236813F0200F06D12368AE
:1023E80023F00A032360012380F821300368494A57
:1023F80093424BD9783A934224D0143293422DD049
:10240800143293422CD0143293422CD0143293427B
:102418002CD0143293422CD0143293422CD002F593
:10242800627293422BD0143293422AD014329342D0
:1024380029D01432934202D04FF4003203E04FF413
:10244800005200E00222344B5A60002380F820300A
:10245800836A002B3FF459AF984756E72022F2E7EA
:102468004FF40072EFE74FF40052ECE74FF40032FC
:10247800E9E74FF40012E6E74FF00072E3E70222C3
:10248800E1E72022DFE74FF40072DCE7234A9342BA
:1024980024D01432934225D01432934224D01432DB
:1024A800934224D01432934224D01432934224D03D
:1024B8001432934224D002F56272934223D014322C
:1024C800934222D01432934221D01432934202D044
:1024D8004FF4003203E04FF4005200E00222104BA8
:1024E8005A60B2E72022FAE74FF40072F7E74FF498
:1024F8000052F4E74FF40032F1E74FF40012EEE730
:102508004FF00072EBE70222E9E72022E7E74FF4F9
:102518000072E4E780000240000402400800024024
:1025280000000240082303FA01F111423FF4EDAE26
:1025380015F0080F3FF4E9AE236823F00E0323607B
:10254800026CC16B012303FA02F24A60836380F8CC
:102558002130002380F82030036B002B3FF4D5AEE8
:102568009847D2E670B582B00024A446B0E0874D03
:10257800AA4210D007D9864DAA420CD005F580355D
:10258800AA4208D013E0A5F58015AA4203D005F5A4
:102598007025AA4207D18A68002A62D0012A5BD036
:1025A8004361082403E0A5F58015AA42F3D0BEF1E3
:1025B800FF0F58D80646BEF1FF0F56D84FEA8C02D7
:1025C80033680F25954023EA050304FA02F2134302
:1025D80033604B6813F0805F78D06E4B9A6942F095
:1025E80001029A619B6903F001030193019B4FEA81
:1025F8009C02951C684B53F825600CF003039D0062
:102608000F23AB4026EA0306644B984233D003F508
:102618008063984200F0988003F58063984200F048
:10262800958003F58063984200F0928003F58063FB
:10263800984200F08F8003F58063984219D00623F2
:102648001AE0CC68B3E7CC680434B0E7CC68083447
:10265800ADE7CC680C34AAE703610824A7E7002497
:10266800A5E70424A3E7061DA5E7ACF1080292003C
:10267800A6E7052300E00023AB4033430232464D72
:1026880045F822304B6813F4803F65D0444A1368FC
:1026980043EA0E0313604B6813F4003F62D0404ACC
:1026A800536843EA0E0353604B6813F4801F5FD0EE
:1026B8003B4A936843EA0E0393604B6813F4001F88
:1026C8005CD0374AD36843EA0E03D3600CF1010C9F
:1026D8000A6832FA0CF357D0012303FA0CF302EA22
:1026E800030E33EA0202F1D14A68122A3FF63FAFDD
:1026F800122A3FF65CAF01A555F822F09F25000885
:102708004B2600085526000867260008B72500084C
:10271800B7250008B7250008B7250008B725000821
:10272800B7250008B7250008B7250008B725000811
:10273800B7250008B7250008B7250008B725000801
:102748004F2600085B260008012395E7022393E73C
:10275800032391E704238FE7114A136823EA0E0342
:10276800136098E70E4A536823EA0E0353609BE709
:102778000B4A936823EA0E0393609EE7084AD368DE
:1027880023EA0E03D360A1E702B070BD0000221057
:102798000000311000100240000001400008014014
:1027A800000401408368194201D0012070470020CD
:1027B80070470AB101617047090401617047000060
:1027C80008B5054B5B69034200D108BD024B58614F
:1027D800FEF736FEF9E700BF0004014003685A69B6
:1027E80012F4806F01D1002070476FF480625A6143
:1027F80000230363202280F83D2080F83E30026CDD
:1028080042F00402026480F83C30012070472DE950
:10281800F04107460D4690461E4624E0FFF768F94A
:10282800069BC01AB04200D8EEB900233B632022B1
:1028380087F83D2087F83E303A6C42F020023A642F
:1028480087F83C3001201EE03B689C6925EA040CAF
:102858001FFA8CFCBCFA8CFC4FEA5C1CE04511D1D9
:10286800B6F1FF3FDAD1C5F30743012BECD13B6842
:102878005B6925EA030C1FFA8CFCBCFA8CFC4FEA56
:102888005C1CEBE70020BDE8F0812DE9F04105462E
:102898000E46174698463DE01A6842F400721A60E0
:1028A8002B686FF480625A6100232B63202285F81D
:1028B8003D2085F83E302A6C42F004022A6485F8EF
:1028C8003C30012034E0FFF713F9A0EB0800B842D0
:1028D80000D8FFB900232B63202285F83D2085F816
:1028E8003E302A6C42F020022A6485F83C300120F0
:1028F8001EE02B689C6926EA0404A4B2003C18BFB9
:102908000124A4B12B685A6912F4806FC4D1B7F1BD
:10291800FF3FD8D1C6F30743012BEAD12B685C6986
:1029280026EA0404A4B2003C18BF0124E9E7002009
:10293800BDE8F081F0B583B004460D4616461F4643
:10294800C36A082B0DD0012B0BD013F5803F08D09C
:10295800036B122B0AD10268136843F48073136067
:1029680004E02268136843F48073136000973346C9
:1029780000224FF001112046FFF749FF80B9236973
:10298800B3F5804F16D1236805F0FE051D613B465F
:10299800324613492046FFF778FFF8B903B0F0BD77
:1029A80023681B6813F4807F02D04FF400732364FC
:1029B8000320F3E7EB11226803F0060343F0F0036A
:1029C80013613B46324607492046FFF75EFF18B9B8
:1029D8002368EDB21D61DAE70120DFE70120DDE7BA
:1029E800020001000800010070B504460D461646B5
:1029F80023685B6913F0800F1CD12046FFF7EEFEB9
:102A0800D0B9B5F1FF3FF3D0FFF772F8801BA842A9
:102A180001D8002DECD100232363202284F83D2027
:102A280084F83E30226C42F02002226484F83C3064
:102A3800012000E0002070BD0120FCE770B50446CD
:102A48000D46164623685B6913F0040F1CD1204617
:102A5800FFF7C4FED0B9B5F1FF3FF3D0FFF748F850
:102A6800801BA84201D8002DECD10023236320222B
:102A780084F83D2084F83E30226C42F02002226423
:102A880084F83C30012000E0002070BD0120FCE704
:102A9800002800F0CC8070B5044690F83D30002B3B
:102AA80077D0242384F83D302268136823F001038B
:102AB80013602268136843F40043136022681368A4
:102AC80023F40043136001F03DFC62685A4B9A42BC
:102AD80064D85A4B98428CBF00230123002B40F046
:102AE800A8805749A1FB00318B0C25686A6822F041
:102AF8003F0242EA91426A6021680A6A22F03F0274
:102B080066684D4DAE424FD8013313430B622168BE
:102B1800CA6922F44F4222F0FF026668464B9E4281
:102B28004CD8431E7600B3FBF6F3013340F6FC7035
:102B3800034278D0C3F30B031343CB6121680B68BE
:102B480023F0C003E269206A024313430B60216843
:102B58008B6823F4034323F0FF032269E0680243F0
:102B680013438B602168CB6823F0FF036269A06977
:102B780002431343CB602268136843F001031360D8
:102B880000202064202384F83D30206384F83E0030
:102B980070BD80F83C30FEF7DBFB82E7294B98429A
:102BA8008CBF0023012399E74FF4967505FB03F3C7
:102BB800254DA5FB03539B090133A6E7A368BBB9C1
:102BC800451E06EB460CB5FBFCF50135C5F30B05B8
:102BD800B5FA85F56D0945BBC3B9013806EB46035F
:102BE800B0FBF3F30133C3F30B0343F40043A3E750
:102BF800451E06EB860C0CEB8C0CB5FBFCF5013581
:102C0800C5F30B05B5FA85F56D09E4E7013806EB60
:102C1800860303EB8303B0FBF3F30133C3F30B0326
:102C280043F4404388E7042386E7012384E701202F
:102C380070470120ACE700BFA08601007F841E001A
:102C480083DE1B43FF083D00D34D62102DE9F0439E
:102C580085B004460F46914698460C9EFEF748FFFD
:102C6800054694F83D00C0B2202804D00227384613
:102C780005B0BDE8F0830095192301224F4920468D
:102C8800FFF7C5FD002840F0928094F83C30012BF6
:102C980000F08F80012384F83C3023681A6812F012
:102CA800010F03D11A6842F001021A602268136802
:102CB80023F400631360212384F83D30102384F843
:102CC8003E3000232364C4F82490A4F82A80638D3E
:102CD80023853B4BE3622B46324639462046FFF7B5
:102CE80029FE0746002866D10023039323685A6902
:102CF80003929B690393039B11E0236C042B01D07F
:102D08000127B4E72268136843F400731360F7E7F8
:102D18002A4631462046FFF791FE00282ED1238D02
:102D2800002B36D02A4631462046FFF75DFE0028A4
:102D3800E3D1626A236812781A61606A431C63628D
:102D4800618D89B2013989B26185238D013B9BB2BE
:102D580023852268516911F0040FD9D0002BD7D0F0
:102D680043781361636A01336362638D9BB2013BED
:102D78009BB26385238D013B2385C9E7236C042B14
:102D880001D0012773E72268136843F400731360C6
:102D9800F7E72268136843F400731360202384F86C
:102DA8003D30002384F83E3084F83C305FE702274A
:102DB8005DE702275BE7012759E700BF0200100023
:102DC8000000FFFF38B512F4804F44D00468B4F80F
:102DD80050309BB291F800C003EBCC03023304EBF4
:102DE8004303B3F80044C4F309048B69A34228D30E
:102DF8001B1B8B618B697BB9056835F82C309BB23E
:102E080023F4804323F0700383F4005343F4004316
:102E180043F0800325F82C3012F0400F0ED00268E2
:102E28000D7832F825309BB223F4E04323F0700389
:102E380043F4004343F0C00322F8253024B9204668
:102E480038BD00238B61D5E723460A8949690068A4
:102E580002F038FFF3E70468B4F850309BB291F8F9
:102E680000C003EBCC03063304EB4303B3F8004480
:102E7800C4F309048B69A3422FD31B1B8B618B6995
:102E88007BB9056835F82C309BB223F4804323F0D6
:102E9800700383F4005343F4004343F0800325F8A0
:102EA8002C3012F0400F0FD1026891F800C032F8B0
:102EB8002C309BB223F4E04323F0700343F4004327
:102EC80043F0C00322F82C30002CB8D023464A899E
:102ED8004969006802F0F6FEB1E700238B61CEE78E
:102EE80070B586B0002800F08580044690F8A932B5
:102EF800EBB1032384F8A932206801F02CFF2546A2
:102F080055F8106BEC460FCDACE80F002B68CCF8E9
:102F18000030231D0ECB304601F00DFF054658B199
:102F2800022384F8A9320125284606B070BD80F82E
:102F3800A83203F0F9FDDCE70021206801F015FF55
:102F48002B461AE05A1C02EB820104EBC101012056
:102F5800487002EB820104F8313003EB830104EB83
:102F6800C101CB8602EB820C04EBCC0C00208CF860
:102F780003008863C8630864D3B261688B42E1D3F5
:102F880016E005EB850304EBC303002283F86921EF
:102F980083F8685183F86B21C3F87821C3F87C2142
:102FA80005EB850304EBC303C3F880210135EDB2BB
:102FB800A942E6D8254655F8106BEC460FCDACE88B
:102FC8000F002B68CCF80030231D0ECB304601F0E3
:102FD800CEFE054620B1022384F8A9320125A3E7D5
:102FE800002384F82430012384F8A932206802F0F1
:102FF800F4F999E7012597E738B590F8A832012B3D
:1030080011D00446012580F8A852006801F09AFE04
:103018002946204603F081FE206802F0DCF90020F2
:1030280084F8A80238BD0220FCE770B505460C46B6
:10303800164612F0400F00F00D810268B2F85030C9
:103048009BB2097803EBC103023302EB4303B3F8E5
:103058000024C2F30902A369934252D99B1AA361BF
:10306800A369002B6AD16378002B4DD12B68B3F884
:10307800502092B2134403EB0111B1F804349BB20F
:1030880023F4F8439BB2A1F80434B1F804346FEA8E
:1030980043436FEA53439BB2A1F804342B68627828
:1030A800002A3ED1B3F8502092B21344227803EBA1
:1030B8000213B3F80C2492B222F4F84292B2A3F8A5
:1030C8000C24B3F80C246FEA42426FEA524292B2DF
:1030D800A3F80C242178284603F05AFD16F4804FF3
:1030E80041D02A68217832F821309BB223F4E0439A
:1030F80023F0700343F4404343F0800322F8213067
:1031080031E00023A361ABE7012BC7D12B68B3F8EB
:10311800502092B2134403EB01110023A1F80434A8
:10312800BCE7012AD6D1B3F8502092B213442278D2
:1031380003EB02130022A3F80C24CBE716F4804F0C
:103148000DD0286830F821309BB223F4E04323F0F7
:10315800700343F4404343F0800320F8213094F88F
:103168002430012B12D02A68217832F821309BB202
:1031780023F4E04323F0400383F0300343F4004397
:1031880043F0800322F82130002070BD63691344A6
:103198006361E3691344E361216A236999421FD398
:1031A800C91A21626278002A3FD12A68B2F8501001
:1031B80089B20A44217802EB0112EBB9B2F804147F
:1031C80089B221F4F84189B2A2F80414B2F80414BF
:1031D8006FEA41416FEA514189B2A2F8041426E02E
:1031E80021B9002384F824301346DBE7002384F850
:1031F800243023620B46D5E73E2B09D8590813F033
:10320800010F00D00131890289B2A2F804140EE03E
:10321800590913F01F0F00D101396FEAC1616FEA34
:10322800514189B2A2F8041401E0012A06D09BB2E8
:1032380022896169286802F0D8F894E72A68B2F808
:10324800501089B20A44217802EB011299B2A2F80F
:103258000414ECE70268B2F850309BB2097803EB2B
:10326800C103063302EB4303B3F80024C2F3090297
:10327800A369934253D39B1AA361A369002B6BD113
:103288006378002B4ED12B68B3F8502092B21344C8
:1032980003EB0111B1F804349BB223F4F8439BB259
:1032A800A1F80434B1F804346FEA43436FEA534396
:1032B8009BB2A1F804342B686278002A3FD1B3F896
:1032C800502092B21344227803EB0213B3F80C2473
:1032D80092B222F4F84292B2A3F80C24B3F80C2468
:1032E8006FEA42426FEA524292B2A3F80C24217864
:1032F800284603F04DFC16F4804F7FF434AF2A685B
:10330800217832F821309BB223F4E04323F0700394
:1033180043F4404343F0800322F8213023E700239D
:10332800A361AAE7012BC6D12B68B3F8502092B24B
:10333800134403EB01110023A1F80434BBE7012A6D
:10334800D5D1B3F8502092B21344227803EB02137C
:103358000022A3F80C24CAE716F4804F0DD1286880
:1033680030F821309BB223F4E04323F0700343F498
:10337800404343F0800320F8213094F82430012B97
:103388007FF4F1AE636913446361E3691344E36155
:10339800216A236999421FD3C91A21622A68617870
:1033A80000293ED1B2F8501089B20A44217802EBC4
:1033B8000112EBB9B2F80C1489B221F4F84189B2C0
:1033C800A2F80C14B2F80C146FEA41416FEA5141AB
:1033D80089B2A2F80C1426E021B9002384F824301D
:1033E8001346DBE70023236284F824300B46D5E735
:1033F8003E2B09D8590813F0010F00D0013189027A
:1034080089B2A2F80C140EE0590913F01F0F00D16D
:1034180001396FEAC1616FEA514189B2A2F80C140F
:1034280001E0012906D09BB262896169286801F030
:10343800DCFF98E6B2F8501089B20A44217802EB12
:10344800011299B2A2F80C14EDE72DE9F0410546F6
:103458002868B0F8443013F4004F00F00F82B0F839
:103468004440A3B214F00F0440F0D88013F0100FBA
:1034780061D003889AB213F4006F40F0938012F47D
:10348800004FE5D0038823F070031B051B0D43F0A4
:10349800800303802868B0F850309BB295F8682103
:1034A80003EBC203063300EB4303B3F80034C3F362
:1034B8000903C5F884318BB1D5F87C1171B1B5F821
:1034C8006E2102F0FFFBD5F88421D5F87C31134436
:1034D800C5F87C310021284603F04EFB2B681A887A
:1034E80012F4006FB4D1B3F8502092B21344D5F857
:1034F8007821002A79D1B3F80C2492B222F4F84248
:1035080092B2A3F80C24B3F80C246FEA42426FEA93
:10351800524292B2A3F80C242A6813889BB223F46F
:10352800804323F0700383F4405343F4004343F093
:10353800800313808CE703889BB223F4E14323F0D4
:1035480070036FEA43436FEA53439BB203802A68D0
:10355800B2F850309BB295F8281003EBC103023340
:1035680002EB4303B3F80034C3F309036B64EA6B5B
:103578001344EB630021284603F00AFB95F8243036
:10358800002B3FF465AF2B6C002B7FF461AF95F8EF
:1035980024302A6843F08003A2F84C30002385F8D1
:1035A800243055E7B0F850309BB295F8682103EB0A
:1035B800C203063300EB4303B3F80034C3F3090333
:1035C800C5F88431B5F86E2105F52C7102F07AFB47
:1035D8002A68138823F070031B051B0D43F0800332
:1035E8001380284603F0C0FA32E73E2A09D851086A
:1035F80012F0010F00D001318A0292B2A3F80C2414
:103608008AE7510912F01F0F00D101396FEAC16230
:103618006FEA524292B2A3F80C247DE730F82430C6
:103628009EB213F4004F4FD116F0800F3FF410AF45
:10363800621C02EB820105EBC101286830F82430D6
:103648009BB223F4E14323F070036FEA43436FEA2C
:1036580053439BB220F82430CB78032B07D033B1E7
:10366800022B40F0068116F4807F40F00281286822
:10367800B0F850309BB2621C02EB820215F832603F
:1036880003EBC603023300EB4303B3F80034C3F380
:10369800090304EB840205EBC202126C9A4240F261
:1036A800D48004EB840705EBC707D21A3A6404EB0D
:1036B800840205EBC202126C002A40F0CD8031462C
:1036C800284603F065FAC3E630F8243023F0700387
:1036D8001B051B0D43F0800320F8243004EB840104
:1036E800C90001F5B47105EB010804EB840305EB8F
:1036F800C30393F87431002B42D12868B0F85030D6
:103708009BB204EB840205EBC20292F8682103EB3A
:10371800C203063300EB4303B3F80074C7F3090789
:1037280017BB04EB840305EBC303D3F884213A44A5
:10373800C3F88421D3F87C213A44C3F87C21D3F818
:1037480080313BB104EB840305EBC303D3F8783134
:103758009F4275D204EB840305EBC30393F8681109
:10376800284603F009FA5FE704EB840105EBC10181
:103778003B46B1F86E21D1F87C1102F0A3FAD0E7EC
:1037880004EB840305EBC30393F86B31022B35D0AC
:10379800296804EB840205EBC20292F8680131F84B
:1037A80020309BB223F4E04323F0700343F400433A
:1037B80043F0C00321F82030286892F8682130F8D7
:1037C800223013F4804F20D0B0F850309BB203EB76
:1037D800C203023300EB4303B3F80074C7F30907CD
:1037E800002F9ED004EB840105EBC1013B46B1F8E4
:1037F8007021D1F87C1102F065FA92E73246414611
:103808002846FFF7DFFA07468BE7B0F850309BB23F
:1038180003EBC203063300EB4303B3F80074C7F3AA
:103828000907002F3FF47DAF04EB840105EBC101CC
:103838003B46B1F87221D1F87C1102F043FA70E7E7
:103848004146286801F0E5FDEEE604EB840205EB4D
:10385800C202002717642AE704EB840205EBC202C0
:10386800D66B1E44D663546C2344536401F0D1FDD7
:10387800EEE532462846FFF7D8FBE9E50020BDE82B
:10388800F08190F8A832012B0DD010B50446012321
:1038980080F8A83280F82410006801F096FD002016
:1038A80084F8A80210BD0220704710B584B0044601
:1038B800006801F094FD10F4004F47D1206801F032
:1038C8008EFD10F4806F45D1206801F088FD10F45A
:1038D800804F08D02268B2F844309BB223F480436A
:1038E8009BB2A2F84430206801F079FD10F4005F23
:1038F80008D02268B2F844309BB223F400539BB23C
:10390800A2F84430206801F06AFD10F4805F32D1DB
:10391800206801F064FD10F4006F78D1206801F090
:103928005EFD10F4007F40F09D80206801F057FD97
:1039380010F4807F08D02268B2F844309BB223F498
:1039480080739BB2A2F8443004B010BD2046FFF744
:103958007CFDB3E72268B2F844309BB223F480635D
:103968009BB2A2F84430204603F023F900212046F8
:10397800FFF787FFA8E72268B2F840309BB223F030
:1039880004039BB2A2F840302268B2F840309BB2E0
:1039980023F008039BB2A2F84030204603F02CF92C
:1039A8002268B2F844309BB223F480539BB2A2F849
:1039B8004430ADE7226832F8231004AA02EB430230
:1039C80022F8101C0133DBB2072BF3D92268B2F8B6
:1039D80040309BB243F00103A2F840302268B2F8AD
:1039E80040309BB223F001039BB2A2F84030236819
:1039F800B3F8442012F4806FF9D0B3F8442092B29F
:103A080022F4806292B2A3F8442000230BE0002342
:103A1800DAE7226804A901EB430131F8101C22F807
:103A280023100133DBB2072BF3D92268B2F84030F8
:103A38009BB243F00803A2F840302268B2F8443041
:103A48009BB223F400639BB2A2F844302268B2F818
:103A580040309BB243F00403A2F84030204603F004
:103A6800BBF85BE72268B2F844309BB223F40073DA
:103A78009BB2A2F84430204603F095F855E710B5FC
:103A880004468C4611F0800F2AD101F0070000EBA4
:103A98008001C90001F5B47E04EB0E0100EB800043
:103AA80004EBC0004FF0000E80F869E10CF0070C41
:103AB80081F800C00A61CB704A780AB1A1F80EC03B
:103AC800022B19D094F8A832012B18D0012384F8BE
:103AD800A832206801F05CF9002084F8A80210BD23
:103AE80001F00700013000EB800104EBC1014FF049
:103AF800010E81F801E0D9E700230B71E2E702200B
:103B0800EDE710B504460B4611F0800F1FD101F008
:103B1800070202EB8201C90001F5B471014402EB0E
:103B2800820200EBC202002082F8690103F0070359
:103B38000B7094F8A832012B13D0012384F8A83213
:103B4800206801F0E1FA002084F8A80210BD01F015
:103B58000702013202EB820100EBC101012048702B
:103B6800E4E70220F2E710B501F0070404EB840152
:103B7800C90001F5B471014404EB840C00EBCC0CD2
:103B8800CCF87C21CCF880310023CCF884318CF837
:103B980069318CF8684124B9006801F03AFC0020CA
:103BA80010BD006801F035FCF9E710B501F0070415
:103BB80004F1010C0CEB8C0100EBC10104EB840E49
:103BC80000EBCE0ECEF83C20CEF8403001228EF825
:103BD8004C20CEF848300023CEF844304A700CEB25
:103BE8008C0C00F83C4024B9006801F012FC00205D
:103BF80010BD006801F00DFCF9E738B501F00705C4
:103C08004268954231D804460B4611F0800F1ED108
:103C180001EB8101C90001F5B471014403EB830391
:103C280000EBC303002283F8692101238B700D7018
:103C380094F8A832012B1AD0012384F8A8322068FE
:103C480001F04DFB5DB1002084F8A80238BD6B1C63
:103C580003EB830100EBC10101224A70E5E704F59B
:103C68002C71206801F0BFFBEDE70120EEE7022090
:103C7800ECE70B4601F00F014268914230D810B5CD
:103C8800044613F0800F21D103F0070202EB8201F2
:103C9800C90001F5B471014402EB820200EBC202D3
:103CA800002082F8690100228A7003F007030B7074
:103CB80094F8A832012B15D0012384F8A832206883
:103CC80001F032FB002084F8A80210BD03F00702BF
:103CD800013202EB820100EBC10101204870E2E7EA
:103CE800012070470220F0E711F0800F0BD001F09F
:103CF8000701013101EB810100EBC10152B90A73DF
:103D0800CB800020704701EB8101C90001F5B47137
:103D18000144F3E701220A730B811B0C4B81F0E786
:103D280082B0084B1B68084AA2FB03235B0A00FB0E
:103D380003F3019300BF019B5A1E0192002BF9D196
:103D480002B0704700000020D34D6210002800F038
:103D5800F18170B582B00446036813F0010F2CD0CE
:103D6800994B5B6803F00C03042B1DD0964B5B68E2
:103D780003F00C03082B12D06368B3F5803F41D0E1
:103D8800002B55D103F1804303F504331A6822F45C
:103D980080321A601A6822F480221A6037E08A4B4F
:103DA8005B6813F4803FE7D0874B1B6813F4003F30
:103DB80003D06368002B00F0BF81236813F0020F63
:103DC80075D0814B5B6813F00C0F5FD07E4B5B683E
:103DD80003F00C03082B54D02369002B00F08A80D1
:103DE8007A4B01221A60FDF783FE0546764B1B6865
:103DF80013F0020F75D1FDF77BFE401B0228F5D9A1
:103E080003209EE1704A136843F4803313606368AB
:103E180043B3FDF76DFE05466B4B1B6813F4003F7B
:103E2800CBD1FDF765FE401B6428F5D9032088E156
:103E3800B3F5A02F09D0644B1A6822F480321A60B7
:103E48001A6822F480221A60E1E703F18043A3F59F
:103E58003C331A6842F480221A601A6842F48032AD
:103E68001A60D4E7FDF744FE0546574B1B6813F468
:103E7800003FA2D0FDF73CFE401B6428F5D9032083
:103E88005FE1514B5B6813F4803FA5D14E4B1B6833
:103E980013F0020F03D02369012B40F04F814A4AE7
:103EA800136823F0F803616943EAC10313602368C8
:103EB80013F0080F33D0A369002B5CD0434B0122C9
:103EC800C3F88024FDF714FE05463F4B5B6A13F0E8
:103ED800020F21D1FDF70CFE401B0228F5D9032063
:103EE8002FE1394A136823F0F803616943EAC103F3
:103EF8001360DCE7354B00221A60FDF7F9FD054633
:103F0800314B1B6813F0020FD1D0FDF7F1FD401BB8
:103F18000228F5D9032014E10120FFF701FF2368E7
:103F280013F0040F00F09680274BDB6913F0805FD5
:103F380034D1254BDA6942F08052DA61DB6903F04B
:103F480080530193019B0125214B1B6813F4807F4B
:103F580026D0E368012B3DD0002B53D103F18043D9
:103F680003F504331A6A22F001021A621A6A22F06F
:103F780004021A6233E0154B0022C3F88024FDF7CF
:103F8800B7FD0546104B5B6A13F0020FC7D0FDF76B
:103F9800AFFD401B0228F5D90320D2E00025D3E766
:103FA8000B4A136843F480731360FDF7A1FD0646BE
:103FB800074B1B6813F4807FCBD1FDF799FD801B5D
:103FC8006428F5D90320BCE00010024000004242FA
:103FD800007000405F4A136A43F001031362E3680C
:103FE80033B3FDF785FD06465A4B1B6A13F0020FE3
:103FF8002FD1FDF77DFD801B41F288339842F3D91C
:1040080003209EE0052B09D0524B1A6A22F00102C8
:104018001A621A6A22F004021A62E0E74D4B1A6A21
:1040280042F004021A621A6A42F001021A62D6E7E2
:10403800FDF75EFD0646474B1B6A13F0020F08D0DA
:10404800FDF756FD801B41F288339842F3D90320CF
:1040580077E0E5B9E369002B72D03E4A526802F076
:104068000C02082A56D0022B17D03B4B00221A66A6
:10407800FDF73EFD0446374B1B6813F0007F47D021
:10408800FDF736FD001B0228F5D9032059E0314A17
:10409800D36923F08053D361DCE72F4B00221A66E3
:1040A800FDF726FD05462B4B1B6813F0007F06D055
:1040B800FDF71EFD401B0228F5D9032041E0236AC5
:1040C800B3F5803F1AD023494B6823F47413226A4E
:1040D800606A024313434B601F4B01221A66FDF7C7
:1040E80007FD04461B4B1B6813F0007F0ED1FDF73C
:1040F800FFFC001B0228F5D9032022E0154A53686B
:1041080023F40033A1680B435360DCE7002018E078
:10411800002016E0012B16D00E4B5B6803F48031AB
:10412800226A914211D103F47013626A93420ED14C
:10413800002006E001207047012002E0012000E095
:10414800002002B070BD0120FBE70120F9E7012043
:10415800F7E700BF001002400000424286B0174B4C
:104168000FCB0DF1180C0CE90F0040F20123ADF84C
:104178000430134B5B6803F00C02082A02D0114884
:1041880006B07047C3F3834218326A4412F8100C21
:1041980013F4803F0DD00A4B5B68C3F340431833D8
:1041A8006B4413F8143C074A02FB00F0B0FBF3F031
:1041B800E6E7054B03FB00F0E2E700BF44EA00082E
:1041C8000010024000127A0000093D00002800F0AB
:1041D800A08070B50D460446524B1B6803F00703D8
:1041E8008B420BD24F4A136823F007030B4313602B
:1041F800136803F007038B4240F08D80236813F0A7
:10420800020F17D013F0040F04D0474A536843F441
:10421800E0635360236813F0080F04D0424A5368E0
:1042280043F460535360404A536823F0F003A16895
:104238000B435360236813F0010F31D06368012BDF
:1042480020D0022B25D0384A126812F0020F64D011
:1042580035494A6822F0030213434B60FDF748FCD6
:104268000646314B5B6803F00C036268B3EB820FC0
:1042780016D0FDF73DFC801B41F288339842F0D9F7
:10428800032045E0284A126812F4003FE0D10120DB
:104298003EE0254A126812F0007FD9D1012037E0AC
:1042A800204B1B6803F00703AB420AD91D4A136869
:1042B80023F007032B431360136803F00703AB4293
:1042C8002DD1236813F0040F06D0174A536823F43E
:1042D800E063E1680B435360236813F0080F07D0CD
:1042E800114A536823F46053216943EAC1035360B8
:1042F800FFF734FF0C4B5B68C3F303130B4AD35C23
:10430800D8400B4B18600B4B1868FDF7ADFB00202D
:1043180070BD012070470120FAE70120F8E701206D
:10432800F6E700BF00200240001002402CEA000817
:104338000000002008000020014B1868704700BFEB
:104348000000002008B5FFF7F7FF044B5B68C3F3D4
:104358000223034AD35CD84008BD00BF00100240C6
:104368003CEA000808B5FFF7E7FF044B5B68C3F3B6
:10437800C223034AD35CD84008BD00BF00100240E6
:104388003CEA000870B582B00446036813F0010FD8
:1043980036D03F4BDB6913F0805F49D13C4BDA697B
:1043A80042F08052DA61DB6903F080530193019B8C
:1043B8000125384B1B6813F4807F3BD0344B1B6AB4
:1043C80013F4407313D0626802F440729A420ED01C
:1043D8002F4A136A23F440702F490126C1F840641C
:1043E8000026C1F84064106213F0010F36D1284A44
:1043F800136A23F4407361680B431362002D3ED1A6
:10440800236813F0020F06D0214A536823F440436F
:10441800A1680B435360236813F0100F34D01C4A73
:10442800536823F4800361690B43536000202CE038
:104438000025BEE7174A136843F480731360FDF73D
:1044480057FB0646134B1B6813F4807FB6D1FDF764
:104458004FFB801B6428F5D9032016E0FDF748FBC5
:1044680006460B4B1B6A13F0020FC0D1FDF740FB49
:10447800801B41F288339842F3D9032005E0D369C1
:1044880023F08053D361BBE7002002B070BD00BFAA
:1044980000100240007000400000424200B587B0A2
:1044A80084463E4B0FCB0DF1180E0EE90F0040F27B
:1044B8000123ADF804300CF1FF300F2867D8DFE88E
:1044C80000F0395B663366666636666666666666FB
:1044D8006608334B5A68186810F0807058D0C2F3D9
:1044E800834318336B4413F8100C12F4803F17D031
:1044F8002B4B5B68C3F3404318336B4413F8142CFD
:10450800284BB3FBF2F303FB00F0254B5B6813F475
:10451800800F3DD14000244BA3FB0030400837E01A
:10452800224B03FB00F0F0E7FFF718FE30E0FFF73F
:1045380015FE2DE01A4B1B6A40F202321A40B2F502
:10454800817F28D003F44073B3F5007F04D0B3F51E
:10455800407F09D000201BE0114A526A12F0020F76
:10456800F5D049F6404013E00D4B186810F40030C0
:104578000ED04FF224400BE0FFF7F4FE084B5B68C7
:10458800C3F3813301335B00B0FBF3F000E000209C
:1045980007B05DF804FB4FF40040F9E744EA00086F
:1045A8000010024000127A00ABAAAAAA00093D0036
:1045B80010B4036A046A24F001040462846924F0D4
:1045C800F00C4CEA021223F00A030B4382610362E7
:1045D80010BC704710B4046A24F0100404628469A3
:1045E800036A24F4704C4CEA023223F0A00343EA35
:1045F80001138261036210BC7047836823F0700363
:104608000B4343F0070383607047000090F83D3088
:10461800DBB2012B2AD1022380F83D300368154A0A
:10462800934218D002F50062934214D0B3F1804F40
:1046380011D0A2F5983293420DD002F580629342D0
:1046480009D002F58062934205D01A6842F001024F
:104658001A60002070479A6802F00702062A07D0FD
:104668001A6842F001021A60002070470120704762
:1046780000207047002C01400368196A41F21112AA
:10468800114208D1196A40F24442114203D11A6812
:1046980022F001021A60012380F83D3000207047A3
:1046A80090F83D30DBB2012B2FD1022380F83D304A
:1046B8000268D36843F00103D3600368154A934244
:1046C80018D002F50062934214D0B3F1804F11D094
:1046D800A2F5983293420DD002F58062934209D038
:1046E80002F58062934205D01A6842F001021A600E
:1046F800002070479A6802F00702062A07D01A6855
:1047080042F001021A600020704701207047002023
:10471800704700BF002C01407047704770477047D2
:1047280010B5044603681A6912F0020F11D0DA684E
:1047380012F0020F0DD06FF002021A610123037705
:1047480003689B6913F0030F70D0FFF7E6FF00239F
:10475800237723681A6912F0040F12D0DA6812F06E
:10476800040F0ED06FF004021A6102232377236826
:104778009B6913F4407F5FD02046FFF7CEFF0023EC
:10478800237723681A6912F0080F12D0DA6812F03A
:10479800080F0ED06FF008021A61042323772368EC
:1047A800DB6913F0030F4ED02046FFF7B6FF002356
:1047B800237723681A6912F0100F12D0DA6812F002
:1047C800100F0ED06FF010021A61082323772368A8
:1047D800DB6913F4407F3DD02046FFF79EFF00239E
:1047E800237723681A6912F0010F03D0DA6812F0F0
:1047F800010F36D123681A6912F0800F03D0DA68E6
:1048080012F0800F34D123681A6912F0400F03D0D8
:10481800DA6812F0400F32D123681A6912F0200FBB
:1048280003D0DA6812F0200F30D110BDFFF774FF03
:104838002046FFF773FF8AE72046FFF76DFF204603
:10484800FFF76CFF9BE72046FFF766FF2046FFF760
:1048580065FFACE72046FFF75FFF2046FFF75EFFE6
:10486800BDE76FF001021A612046FCF7E1FDC1E7E0
:104878006FF080021A61204600F041F9C3E76FF03B
:1048880040021A612046FFF74AFFC5E76FF0200291
:104898001A61204600F032F9C7E700000368244A8D
:1048A800904212D002F5006290420ED0B0F1804FD3
:1048B8000BD0A2F59832904207D002F58062904260
:1048C80003D002F58062904203D123F070034A6856
:1048D8001343174A904212D002F5006290420ED05C
:1048E800B0F1804F0BD0A2F59832904207D002F574
:1048F8008062904203D002F58062904203D123F493
:104908004073CA68134323F080034A691343036062
:104918008B68C3620B688362054B984203D003F52A
:104928000063984201D10B69036301234361704717
:10493800002C014040B310B5044690F83D30F3B167
:10494800022384F83D30214651F8040BFFF7A6FFF7
:10495800012384F8463084F83E3084F83F3084F8E8
:10496800403084F8413084F8423084F8433084F889
:10497800443084F8453084F83D30002010BD80F87C
:104988003C30FCF7D5FFDBE70120704710B48468A2
:1049980024F47F4C42EA03220A4342EA0C02826072
:1049A80010BC704790F83C30012B66D010B5044617
:1049B800012380F83C30022380F83D300268936878
:1049C80023F47F4323F0770393600B68602B40D078
:1049D80022D8402B47D00BD9502B0ED1CA68496832
:1049E8000068FFF7E5FD50212068FFF706FE04E0A8
:1049F800202B0CD008D9302B09D0012384F83D3066
:104A0800002084F83C0010BD0BB1102BF5D11946DD
:104A18002068FFF7F2FDF0E7702B0ED0B3F5005FCA
:104A2800EBD1CB684A6889680068FFF7AFFF226856
:104A3800936843F480439360DFE7CB684A688968EA
:104A48000068FFF7A3FF2268936843F07703936039
:104A5800D3E7CA6849680068FFF7BCFD6021206891
:104A6800FFF7CBFDC9E7CA6849680068FFF7A0FDF2
:104A780040212068FFF7C1FDBFE702207047000012
:104A880090F83C30012B34D010B4012380F83C302E
:104A9800022380F83D3003685A689C6822F0700C45
:104AA8000A6842EA0C025A600368134A934212D019
:104AB80002F5006293420ED0B3F1804F0BD0A2F5FD
:104AC8009832934207D002F58062934203D002F5F0
:104AD8008062934204D124F080044A6814439C60A5
:104AE800012380F83D30002380F83C30184610BC84
:104AF80070470220704700BF002C01407047704784
:104B080010B504460268136923F44053C1680B4387
:104B1800136183680269134342691A430168CB68C9
:104B280023F4B05323F00C031343CB60026853699A
:104B380023F4407381690B4353610268134B9A4213
:104B480020D0FFF7FFFB024602EB820202EB820253
:104B580063689B00B2FBF3F20D48A0FB02314909E0
:104B6800642303FB11231B013233A0FB03235B09DE
:104B780003F0F00202EB011203F00F032168134463
:104B88008B6010BDFFF7EEFB0246DDE70038014001
:104B98001F85EB512DE9F84305460F461646994601
:104BA800DDF820802C68246837EA04030CBF4FF036
:104BB800010C4FF0000CB4451FD1B8F1FF3FF1D004
:104BC800B8F1000F05D0FCF793FFA0EB09004045B2
:104BD800E8D92A68D36823F4D073D3602A68536964
:104BE80023F001035361202385F83D3085F83E30DA
:104BF800002385F83C30032000E00020BDE8F8835E
:104C080058B310B5044690F83D300BB3242384F80C
:104C18003D302268D36823F40053D3602046FFF761
:104C28006FFF2268136923F4904313612268536964
:104C380023F02A0353612268D36843F40053D360F6
:104C480000202064202384F83D3084F83E3010BDD5
:104C580080F83C30FCF7A6FED8E7012070472DE924
:104C6800F04182B01E4690F83D30DBB2202B54D183
:104C780004460D469046002953D0002A53D090F898
:104C88003C30012B51D0012380F83C3000230364D1
:104C9800212380F83D30FCF72BFF0746A4F8248039
:104CA800A4F82680A368B3F5805F05D04FF000080C
:104CB800002384F83C3012E0236913B14FF0000858
:104CC800F6E7A8460025F3E738F8023B2268C3F365
:104CD80008035360E28C92B2013A92B2E284E38C08
:104CE8009BB273B100963B46002280212046FFF715
:104CF80051FFE0B9002DE7D015F8012B23685A6061
:104D0800E8E700963B46002240212046FFF742FF95
:104D180078B9202384F83D3000E0022002B0BDE8D5
:104D2800F0810120FAE70120F8E70220F6E70320E6
:104D3800F4E70320F2E784B001A880E80E00002021
:104D480004B0704703460020A3F844004FF43F42E4
:104D5800A3F840207047B0F8403023F47C535B043C
:104D68005B0CA0F84030002070470020704784B0EA
:104D7800844601A880E80E000123ACF840300020EA
:104D8800ACF84000ACF84400ACF8500004B07047F0
:104D980010B5034691F800C030F82C2092B222F4E6
:104DA800EC4222F0700292B2C878032861D8DFE89A
:104DB80000F0555C0258002048F2800E42EA0E02CC
:104DC80023F82C2091F800C033F82C2092B222F45A
:104DD800E04222F070024CEA020242EA0E0223F894
:104DE8002C200A7B002A40F0C4804A78002A51D03F
:104DF800B3F8502092B21A440C7802EB0412B1F8BE
:104E080006C04FEA5C0C4FEA4C0CA2F800C40C78C0
:104E180033F8242012F0400F0CD033F8242092B23B
:104E280022F4E04222F0700242F4004242F0C00252
:104E380023F82420CA78012A1DD0097833F82120C4
:104E480092B222F4E04222F0400282F0200242F4C0
:104E5800004242F0800223F821206AE042F4007206
:104E6800AAE742F4C0620020A6E742F4806200206C
:104E7800A2E70120A0E7097833F8212092B222F4B2
:104E8800E04222F0400242F4004242F0800223F85D
:104E980021204EE0B3F8502092B21A440C7802EB6D
:104EA8000412B1F806C04FEA5C0C4FEA4C0CA2F8A9
:104EB80008C4B3F8502092B21A440C7802EB0412DA
:104EC8000C69BCBBB2F80CC41FFA8CFC2CF4F84C6F
:104ED8001FFA8CFCA2F80CC4B2F80CC46FEA4C4C54
:104EE8006FEA5C4C1FFA8CFCA2F80CC40C7833F8FF
:104EF800242012F4804F0CD033F8242092B222F4EC
:104F0800E04222F0700242F4404242F0800223F86C
:104F18002420097833F8212092B222F4804222F02A
:104F2800700282F4405242F4004242F0800223F8B8
:104F3800212010BD3E2C0DD84FEA540C14F0010F5F
:104F480001D00CF1010C4FEA8C2C1FFA8CFCA2F852
:104F58000CC4CBE74FEA541C14F01F0F01D10CF11D
:104F6800FF3C6FEACC646FEA5444A4B2A2F80C4444
:104F7800BCE791F800C033F82C2092B222F4E0424A
:104F880022F0700242F4014242F0800223F82C2001
:104F9800B3F8502092B21A4491F800C002EB0C12F8
:104FA800B1F808C04FEA5C0C4FEA4C0CA2F800C4F8
:104FB800B3F8502092B21A4491F800C002EB0C12D8
:104FC800B1F80AC04FEA5C0C4FEA4C0CA2F808C4CE
:104FD8004A78002A41D10C7833F8242012F4804F03
:104FE8000CD033F8242092B222F4E04222F070026E
:104FF80042F4404242F0800223F824200C7833F82F
:10500800242012F0400F0CD033F8242092B222F45E
:10501800E04222F0700242F4004242F0C00223F85B
:10502800242091F800C033F82C2092B222F4804258
:1050380022F0700282F4405248F28004224323F89E
:105048002C20097833F8212092B222F4E04222F091
:105058004002224323F821206BE70C7833F8242000
:1050680012F4804F0CD033F8242092B222F4E0429C
:1050780022F0700242F4404242F0800223F82420D9
:105088000C7833F8242012F0400F0CD033F8242089
:1050980092B222F4E04222F0700242F4004242F05E
:1050A800C00223F82420CA78012A1ED00C7833F8CD
:1050B800242092B222F4E04222F0400282F0200240
:1050C80042F4004242F0800223F82420097833F8A1
:1050D800212092B222F4804222F0700242F400426F
:1050E80042F0800223F8212023E70C7833F82420AB
:1050F80092B222F4E04222F0400242F4004242F02E
:10510800800223F82420E1E70B7B002B46D14B7863
:1051180013B30A7830F8223013F0400F0CD030F86F
:1051280022309BB223F4E04323F0700343F400439E
:1051380043F0C00320F822300A7830F822309BB2BE
:1051480023F4E04323F0400343F4004343F0800397
:1051580020F82230002070470A7830F8223013F403
:10516800804F0CD030F822309BB223F4E04323F078
:10517800700343F4404343F0800320F822300A7858
:1051880030F822309BB223F4804323F0700343F4B9
:10519800004343F0800320F82230DBE74B78002BF4
:1051A8004ED10A7830F8223013F4804F0CD030F802
:1051B80022309BB223F4E04323F0700343F44043CE
:1051C80043F0800320F822300A7830F8223013F0B8
:1051D800400F0CD030F822309BB223F4E04323F088
:1051E800700343F4004343F0C00320F822300A78E8
:1051F80030F822309BB223F4E04323F0700343F4E9
:10520800004343F0C00320F822300B7830F8232005
:1052180092B222F4804222F0700248F2800C42EAF4
:105228000C0220F823200A7830F822309BB223F4AD
:10523800E04323F0400343EA0C0320F8223089E7D7
:105248000A7830F8223013F4804F0CD030F822302E
:105258009BB223F4E04323F0700343F4404343F04C
:10526800800320F822300A7830F8223013F0400FFB
:105278000CD030F822309BB223F4E04323F07003C3
:1052880043F4004343F0C00320F822300A7830F892
:1052980022309BB223F4E04323F0700343F44043ED
:1052A80043F0800320F822300B7830F8232092B2A4
:1052B80022F4E04222F0400248F2800C42EA0C025A
:1052C80020F823200A7830F822309BB223F4804358
:1052D80023F0700343EA0C0320F822303AE74B78B6
:1052E8008BB10A7830F822309BB223F4E04323F0E4
:1052F800400383F0100343F4004343F0800320F895
:105308002230002070470A7830F822309BB223F40C
:10531800804323F0700383F4805343F4004343F045
:10532800800320F82230ECE70B7B002B4BD14B7825
:1053380033B30A7830F8223013F0400F0CD030F82D
:1053480022309BB223F4E04323F0700343F400437C
:1053580043F0C00320F82230CB78012B33D00A78F1
:1053680030F822309BB223F4E04323F0400383F06B
:10537800200343F4004343F0800320F8223022E066
:105388000A7830F8223013F4804F0CD030F82230ED
:105398009BB223F4E04323F0700343F4404343F00B
:1053A800800320F822300A7830F822309BB223F4A8
:1053B800804323F0700383F4405343F4004343F0E5
:1053C800800320F822300020704711B98023A0F80C
:1053D8004C30002070470020704700207047B0F81C
:1053E800440080B270470020704710B45C1C640809
:1053F80000EB420202F5806207E00B78487843EA46
:10540800002322F8043B0231013C002CF5D110BCEA
:10541800704770B505460C464B78012B37D00A7B90
:10542800002A40F026838B690A69934240F204837C
:105438009B1A8B61B5F850309BB22B44217803EB53
:105448000113002A40F0FC82B3F80C2492B222F433
:10545800F84292B2A3F80C24B3F80C246FEA424243
:105468006FEA524292B2A3F80C24227835F822301F
:105478009BB223F4804323F0700383F4405343F436
:10548800004343F0800325F82230002070BD8E6968
:105498000A69964200D91646237B002B39D0E37857
:1054A800022B58D0227835F822309BB223F4E043FF
:1054B80023F0700343F4014343F0800325F82230BE
:1054C800236A9B1B2362237835F8232012F0400FB0
:1054D80000F026826278002A40F0CA81B5F8502090
:1054E80092B22A4402EB0313002E40F0A881B3F8CD
:1054F8000C2492B222F4F84292B2A3F80C24B3F826
:105508000C246FEA42426FEA524292B2A3F80C248A
:10551800B0E1B6B23346E28861692846FFF765FF15
:10552800B5F850309BB22B44227803EB0213A3F852
:105538000464227835F822309BB223F4E04323F048
:10554800400383F0300343F4004343F0800325F81D
:10555800223000209AE7236A9A4280F0528122780A
:1055680035F822309BB223F4E04323F0700343F470
:10557800014343F0800325F82230236A9B1B2362F2
:10558800237835F8232012F0400F00F09D806278D0
:105598008ABBB5F8502092B22A4402EB03138EB9A5
:1055A800B3F80C2492B222F4F84292B2A3F80C2475
:1055B800B3F80C246FEA42426FEA524292B2A3F85F
:1055C8000C241AE03E2E09D8720816F0010F00D0FC
:1055D8000132920292B2A3F80C240EE0720916F07E
:1055E8001F0F00D1013A6FEAC2626FEA524292B2CB
:1055F800A3F80C2401E0012A2BD0B3B262896169B7
:105608002846FFF7F2FE636933446361236A22691F
:10561800934228D99B1B23626378002B40D1B5F8AD
:1056280050309BB22B44227803EB0213FEB9B3F837
:10563800042492B222F4F84292B2A3F80424B3F8F4
:1056480004246FEA42426FEA524292B2A3F8042459
:1056580028E0B5F8502092B22A4402EB0313B2B204
:10566800A3F80C24C9E7002222621E46D4E73E2E86
:1056780009D8720816F0010F00D00132920292B2D6
:10568800A3F804240EE0720916F01F0F00D1013AA6
:105698006FEAC2626FEA524292B2A3F8042401E0B0
:1056A800012B06D0B3B2228961692846FFF79DFE17
:1056B8003FE7B5F850309BB22B44227803EB021336
:1056C800B2B2A3F80424EDE762788ABBB5F850209B
:1056D80092B22A4402EB03138EB9B3F8042492B2AF
:1056E80022F4F84292B2A3F80424B3F804246FEA2F
:1056F80042426FEA524292B2A3F804241AE03E2EC4
:1057080009D8720816F0010F00D00132920292B245
:10571800A3F804240EE0720916F01F0F00D1013A15
:105728006FEAC2626FEA524292B2A3F8042401E01F
:10573800012A2BD0B3B2228961692846FFF755FEAA
:10574800636933446361236A2269934228D99B1BA6
:1057580023626378002B40D1B5F850309BB22B44BC
:10576800227803EB0213FEB9B3F80C2492B222F4A8
:10577800F84292B2A3F80C24B3F80C246FEA424220
:105788006FEA524292B2A3F80C2428E0B5F85020F0
:1057980092B22A4402EB0313B2B2A3F80424C9E775
:1057A800002222621E46D4E73E2E09D8720816F05F
:1057B800010F00D00132920292B2A3F80C240EE03D
:1057C800720916F01F0F00D1013A6FEAC2626FEA40
:1057D800524292B2A3F80C2401E0012B06D0B3B2D6
:1057E800628961692846FFF700FEA2E6B5F85030E5
:1057F8009BB22B44227803EB0213B2B2A3F80C2419
:10580800EDE7217835F8212092B222F4E24222F025
:10581800700242F4004242F0800225F82120B5F8D7
:10582800502092B22A44217802EB01129BB2A2F8CE
:105838000434228961692846FFF7D7FD79E63E2EB0
:1058480009D8720816F0010F00D00132920292B204
:10585800A3F80C240EE0720916F01F0F00D1013ACC
:105868006FEAC2626FEA524292B2A3F80C2401E0D6
:10587800012A26D0B3B2628961692846FFF7B5FDCF
:10588800636933446361236A2269934223D99B1B6A
:105898002362002E3FF44DAE63786BBBB5F85030F1
:1058A8009BB22B44227803EB02133E2E17D87208C2
:1058B80016F0010F00D00132920292B2A3F804242C
:1058C8001CE0B5F8502092B22A4402EB0313B2B29E
:1058D800A3F80C24CEE7002222621E46D9E77209FB
:1058E80016F01F0F00D1013A6FEAC2626FEA524206
:1058F80092B2A3F8042401E0012B06D0B3B22289A6
:1059080061692846FFF771FD13E6B5F850309BB280
:105918002B44227803EB0213B2B2A3F80424EDE778
:1059280062788ABBB5F8502092B22A4402EB03137E
:105938008EB9B3F8042492B222F4F84292B2A3F8D2
:105948000424B3F804246FEA42426FEA524292B246
:10595800A3F804241AE03E2E09D8720816F0010FA5
:1059680000D00132920292B2A3F804240EE0720928
:1059780016F01F0F00D1013A6FEAC2626FEA524275
:1059880092B2A3F8042401E0012A26D0B3B22289F6
:1059980061692846FFF729FD636933446361236A17
:1059A8002269934223D99B1B2362002E3FF4C1AD89
:1059B80063786BBBB5F850309BB22B44227803EB6D
:1059C80002133E2E17D8720816F0010F00D00132CC
:1059D800920292B2A3F80C241CE0B5F8502092B2BF
:1059E8002A4402EB0313B2B2A3F80424CEE7002240
:1059F80022621E46D9E7720916F01F0F00D1013A3C
:105A08006FEAC2626FEA524292B2A3F80C2401E034
:105A1800012B06D0B3B2628961692846FFF7E5FC1D
:105A280087E5B5F850309BB22B44227803EB02137C
:105A3800B2B2A3F80C24EDE700228A611A46F9E411
:105A48003E2A09D8510812F0010F00D0013189020D
:105A580089B2A3F80C1408E5510912F01F0F00D100
:105A680001396FEAC1616FEA514189B2A3F80C1498
:105A7800FBE4CA78022A45D0012A40F020818969CE
:105A88002269914240F2D480891AA161D3B9B5F84C
:105A980050309BB22B44217803EB0113002A40F0CD
:105AA800CB80B3F8041489B221F4F84189B2A3F881
:105AB8000414B3F804146FEA41416FEA514189B202
:105AC800A3F804146378002B40F0EA80B5F850304E
